:02000000FC2FD3
:100F06008316051485141F109F1007308312990449
:100F160083161F1105110800831605153F30920030
:100F260083121508F0390C389500A32783128C100C
:100F3600FC30920512158C1C9E2F83160511080095
:100F460076080339F000F00E831215087006CF39C3
:100F5600700695007708F1007608F000710DF10C27
:100F6600F00C710DF10CF00C70089300080083274B
:100F76008F27F301F30AF501F50AF401F40A0030AC
:100F8600831205180130F500003085180130F40091
:100F96007508031DF62F73080319F62F7403031D36
:100FA600E52F7708803AFF0080307F02031DDD2F92
:100FB60001307602031CF62FFF30F6070318F70AF6
:100FC600FF30F52F7708803AFF0080307F02031D3F
:100FD600EE2FFF3076020318F62F0130F6070318BE
:100FE600F70A0030F7077508F2007208F300A32726
:0A0FF600C22FF601F7018301BA2FA4
:02400E00D4FFDD
:00000001FF
